:020000040800F2
:10000000680600204D080008550800085708000839
:10001000590800085B0800085D080008000000009F
:100020000000000000000000000000005F08000861
:100030006108000800000000630800086508000867
:1000400067080008670800086708000867080008D4
:1000500067080008670800086708000867080008C4
:1000600067080008670800086708000867080008B4
:1000700067080008670800086708000867080008A4
:100080006708000867080008670800086708000894
:100090006708000867080008670800086708000884
:1000A0006708000867080008670800086708000874
:1000B0006708000867080008670800086708000864
:1000C0006708000867080008670800086708000854
:1000D0006708000867080008670800086708000844
:1000E00067080008670800086708000800F002F8C1
:1000F00000F050F814A696E8000CB244B344DA4578
:1001000001D100F047F8BAE80F000FA696E83000DA
:10011000A5EB040504EB0607AAEB0704A7F101070A
:100120004FEA15154FEA3414A4F10104AC4201D38F
:1001300000F030F813F0010F18BFFB1A43F0010371
:1001400000F001F8DBE718476C0900008C0900009B
:10015000103A24BF78C878C1FAD8520724BF30C8F3
:1001600030C144BF04680C60704700007047000055
:100170000023002400250026103A28BF78C1FBD8B0
:10018000520728BF30C148BF0B6070471FB51FBD65
:1001900010B510BD00F034FC1146FFF7F7FF00F07A
:1001A00051F800F052FC03B4FFF7F2FF03BC00F07B
:1001B00059FC00000820012100F0ECBA80B582B0A3
:1001C0001F20C1F20300019040F60040C4F201007C
:1001D00001A900F08DF802B080BD00BF81B0009091
:1001E0004FF0FF30009901308842FBD301B07047D7
:1001F000002808BF70472DE9F04182B040F6004565
:1002000044F6403780460026C4F20105C0F24C0790
:10021000002400BF2846002100F0EEF84FF0FF3028
:10022000019700BF019901308842FBD3032C04F1F0
:100230000104EFD301364645EAD302B0BDE8F041F0
:10024000704700BF82B040F6004408200121C4F28C
:10025000010400F09FFA1F20C1F2030000906946DC
:10026000204600F045F844F640350026C0F24C0523
:10027000002700BF2046002100F0BEF84FF0FF30FD
:10028000019500BF019901308842FBD3032F07F18C
:100290000107EFD30020042E38BF701C0646E7E7A5
:1002A000A0F18041A1F58431800540EA9120062823
:1002B00088BF704710B540F67421C0F6000151F8B0
:1002C00020400121204600F07DFA20460021BDE8B3
:1002D000104000F077BA00BF80B50120012100F086
:1002E00071FA01200021BDE8804000F06BBA00BF28
:1002F000CA7802F00F0CD30644BF8B784CEA030C8B
:100300002DE9F04709880B0625D082465AF8144B90
:1003100000F1100E00254FF001094FF00F080027E3
:1003200006E000BF1E600137082F05F1040511D05B
:1003300009FA07F60E42F6D008FA05F324EA030399
:100340000CFA05F41C43282A5346EBD0482AEAD17C
:100350007346E7E70460B1F5807F38BFBDE8F087FA
:10036000436800F1100E00F1140900254FF4807A63
:100370004FF00F08002705E034600137082F05F122
:10038000040512D00AFA07F404EA0106A642F4D1E1
:1003900008FA05F6B3430CFA05F63343282A4E460D
:1003A000EAD0482AE9D17646E6E74360BDE8F0871F
:1003B0004FF6FF71C0F2024101607047806808404B
:1003C00018BF0120704700BF806880B2704700BF2F
:1003D000C068084018BF0120704700BFC06880B2E5
:1003E000704700BF01617047416170471023002AC8
:1003F00008BF1423C1507047C160704701F58032B7
:1004000082618161826181698069704740F2000C7C
:10041000C4F2010CDCF800304FF680721A4041EA59
:1004200000101043CCF80000704700BF1C21C4F23C
:1004300020210860704700BFB0B540F2040CC4F240
:10044000010C0CF118031A46B0F1FF3FC4BF04229F
:10045000C4F20102146800F44012B2F5401F1FFA02
:1004600080FE08D1DCF8005024F0706225F0706442
:10047000CCF8004011E0C20206D46FF00F0202EA8D
:1004800050420EFA02F204E0C0F30342032505FADB
:1004900002F224EA020242F070626FF00F0404EAF2
:1004A000504400290EFA04F518BF2A43B0F1FF3F6B
:1004B000C8BF63461A60B0BD10B50C22082402EA1A
:1004C000810201F0FC01C4F201044FF00F0C51F85D
:1004D00004E00CFA02F32EEA03030B510B5990408F
:1004E0001843085110BD00BFDC21C4F22021086070
:1004F0007047000041F20000C4F2020001680022CF
:1005000041F0010101604168CFF6FF0211404160F6
:1005100001684FF6FF72CFF6F66211400160016884
:1005200021F480210160416821F4FE0141604FF413
:100530001F018160704700BF41F20001C4F2020157
:100540000A68B0F5803F22F480320A600A6822F41B
:1005500080220A6005D0B0F5802F18BF70474FF495
:10056000A0200A6810430860704700BF81B041F2C4
:100570000000C4F202000021009100BF0168009A4F
:1005800001320092009AB2F5A06F02D011F400314E
:10059000F4D00068C0F3404001B07047420941F216
:1005A0000001012AC4F2020103D0022A14BF24313F
:1005B0002031096800F01F0021FA00F000F001006E
:1005C000704700BF41F20001C4F202010A6822F044
:1005D000F80242EAC0000860704700BF0021C4F280
:1005E00042210860704700BF41F20402C4F20202D7
:1005F0001368084323F47C1318431060704700BF4E
:100600006021C4F242210860704700BF41F204013A
:10061000C4F202010A6822F0030210430860704726
:1006200041F20400C4F20200006800F00C007047C0
:1006300041F20401C4F202010A6822F0F002104300
:100640000860704741F20401C4F202010A6822F412
:10065000E06210430860704741F20401C4F20201F5
:100660000A6822F4605242EAC0000860704700BF86
:10067000002941F20901C4F202010A780CBF22EA02
:100680000000104308707047D821C4F2422108606E
:10069000704700BF41F20401C4F202010A6822F46B
:1006A000404210430860704741F22001C4F2020149
:1006B000002201280A700A7003D0042818BF70476E
:1006C00005200870704700BF40F28041C4F242210B
:1006D0000860704741F22001C4F202010A68104329
:1006E0000860704740F23C41C4F242210860704704
:1006F00010B541F20404C4F20204226802F00C02B4
:10070000082A41F20022C0F27A0212D12368D4F8FA
:1007100000C0C3F3834E5FEACC330EF1020C02D566
:1007200023689B0303D540F60012C0F23D020CFB88
:1007300002F20260226840F6A423C2F30312C0F65C
:1007400000039A5C0168D14041602268C2F3022232
:100750009A5C21FA02F282602268C2F3C2229A5C99
:1007600040F69023D140C1602268C0F60003C2F376
:1007700081329A5CB1FBF2F1016110BD002941F2B6
:100780001401C4F202010A680CBF22EA00001043FF
:1007900008607047002941F21801C4F202010A689A
:1007A0000CBF22EA0000104308607047002941F2A4
:1007B0001C01C4F202010A680CBF22EA00001043C7
:1007C00008607047002941F20C01C4F202010A6876
:1007D0000CBF22EA0000104308607047002941F274
:1007E0001001C4F202010A680CBF22EA00001043A3
:1007F0000860704740F24041C4F2422108607047EF
:100800004C21C4F242210860704700BF41F2070149
:10081000C4F202010870704741F22400C4F20200E1
:10082000016841F080710160704700BF41F208012A
:10083000C4F202010968084018BF0120704700BFD8
:1008400041F20A01C4F2020108707047094880476A
:1008500009480047FEE7FEE7FEE7FEE7FEE7FEE7A2
:10086000FEE7FEE7FEE7FEE704480549054A064BBA
:10087000704700008D080008ED00000868000020A7
:1008800068060020680200206802002082B041F261
:100890000400C4F2020050F8041C002241F00101DF
:1008A00040F8041C0168CFF6FF021140016050F8C7
:1008B000041C4FF6FF72CFF6F662114040F8041C9C
:1008C00050F8041C21F4802140F8041C016821F434
:1008D000FE0101604FF41F01416000210191009170
:1008E00050F8041C41F4803140F8041C50F8041CFA
:1008F00001F400310091019901310191009919B978
:100900000199B1F5A06FF1D150F8041C890354BFCF
:100910000021012100910099012936D142F2000104
:10092000C4F202010A6842F010020A600A6822F06A
:1009300007020A600A6842F002020A600168016068
:1009400001680160016841F480610160016821F47F
:100950007C110160016841F4E811016050F8041C49
:1009600041F0807140F8041C50F8041C8901FBD54B
:10097000016821F003010160016841F0020101609A
:10098000016801F00C010829FAD14EF60850CEF2A8
:1009900000004FF00061016002B0704741F20400B6
:1009A000C4F20200016801F00C01082941F20021A3
:1009B000C0F27A010FD102680368C2F38342DB03FD
:1009C00002F1020202D503689B0303D540F6001131
:1009D000C0F23D01514340F20002C2F20002116038
:1009E000006840F69421C0F30310C0F60001085CD3
:1009F000116821FA00F01060704770477047704727
:100A0000754600F02BF8AE4605006946534620F0C7
:100A10000700854618B020B5FFF726FFBDE8204047
:100A20004FF000064FF000074FF000084FF0000BAA
:100A3000AC46ACE8C009ACE8C009ACE8C009ACE819
:100A4000C00921F007018D46704710B50446AFF389
:100A500000802046BDE81040FFF7A5BB0048704766
:100A60000800002001491820ABBEFEE72600020066
:100A700070470000040000000800000010000000A3
:100A80002000000040000000800000000001000085
:100A90000204060800000000000000000102030438
:100AA0000607080900000000010203040102030414
:100AB00006070809D80A0008000000200800000006
:100AC00050010008E00A000808000020600600004D
:100AD000700100080000000000A24A0400000000AD
:04000005080000ED02
:00000001FF
