:020000040800F2
:1000000088060020A1070008A9070008AB07000820
:10001000AD070008AF070008B107000800000000A6
:10002000000000000000000000000000B30700080E
:10003000B507000800000000B7070008B90700086E
:10004000BB070008BB070008BB070008BB07000888
:10005000BB070008BB070008BB070008BB07000878
:10006000BB070008BB070008BB070008BB07000868
:10007000BB070008BB070008BB070008BB07000858
:10008000BB070008BB070008BB070008BB07000848
:10009000BB070008BB070008BB070008BB07000838
:1000A000BB070008BB070008BB070008BB07000828
:1000B000BB070008BB070008BB070008BB07000818
:1000C000BB070008BB070008BB070008BB07000808
:1000D000BB070008BB070008BB070008BB070008F8
:1000E000BB070008BB070008BB07000800F002F8C8
:1000F00000F03AF80AA090E8000C82448344AAF188
:100100000107DA4501D100F02FF8AFF2090EBAE885
:100110000F0013F0010F18BFFB1A43F0010318473B
:10012000A8080000C8080000103A24BF78C878C1A9
:10013000FAD8520724BF30C830C144BF04680C60ED
:10014000704700000023002400250026103A28BF35
:1001500078C1FBD8520728BF30C148BF0B60704739
:100160001FB51FBD10B510BD00F0F7FB1146FFF71E
:10017000F7FF00F042F800F015FC03B4FFF7F2FFC0
:1001800003BC00F019FC000001B5002000E0401C99
:1001900000998842FBD308BD2DE9F04707460025AA
:1001A0000126DFF86880DFF868900FE0002406FA87
:1001B00004F081B2404600F00FF94846FFF7E4FF33
:1001C000641CE4B2052CF2D36D1CEDB2BD42EDD33C
:1001D000BDE8F08708B51F20ADF8000010208DF8AD
:1001E000030003208DF802006946084800F07BF800
:1001F00008BD0121042000F07CBAFFF7FAFFFFF7E9
:10020000E9FF0320FFF7C8FFFBE7000000080140FB
:10021000404B4C0010B59C49884209D10121042073
:1002200000F07DFA0021BDE81040042000F077BA0C
:100230009649884209D10121082000F070FA002176
:10024000BDE81040082000F06ABA9149884209D1FF
:100250000121102000F063FA0021BDE810401020B9
:1002600000F05DBA8B49884209D10121202000F0BD
:1002700056FA0021BDE81040202000F050BA86490F
:10028000884209D10121402000F049FA0021BDE84F
:100290001040402000F043BA8049884209D1012132
:1002A000802000F03CFA0021BDE81040802000F0E2
:1002B00036BA7B4988420AD184150121204600F0D4
:1002C0002EFA2046BDE81040002100F028BA10BDEB
:1002D00010B50121084600F022FA0021BDE81040C7
:1002E000012000F01CBA2DE9F0410022CC7804F086
:1002F0000F03E40601D58C7823430C784FF00F07E9
:1003000014F0FF0F4FF0010C1CD005680CFA02F43A
:100310000E882640A64211D1960007FA06F825EA73
:10032000080503FA06F848EA0505CE78282E02D01B
:10033000482E02D002E0446100E00461521C082A09
:10034000E4D305600A88FF2A1ED94568002202F11D
:1003500008060CFA06F40E882640A64210D1960034
:1003600007FA06F825EA080503FA06F848EA05053B
:10037000CE78282E00D14461CE78482E00D1046179
:10038000521C082AE3D34560BDE8F0814FF6FF71A7
:100390000180022181700421C17070470246002053
:1003A00092680A4200D001207047806880B270478E
:1003B00002460020D2680A4200D001207047C0687F
:1003C00080B270470161704741617047002A01D0D7
:1003D0000161704741617047C160704741F48032EC
:1003E00082618161826181698069704710B52D4B9E
:1003F0001A684FF68074224042EA001008431860E1
:1004000010BD2949C8617047F0B5264C002801DAB3
:10041000E36900E06368C0F30346420D120185B250
:10042000C0F301579540032F07D0C2020CD5032219
:10043000B240934343F0706209E023F07062636856
:1004400023F07063636002E0AB4343F0706201B17C
:100450002A43002801DAE261F0BD6260F0BD10B508
:100460008A07120F0F23934021F003040D49214402
:100470008C689C438C608B68904003438B6010BDFC
:100480000949DC310860704700080140000C014058
:10049000001001400014014000180140001C014000
:1004A000002001400000014000002042B4480168E3
:1004B00041F0010101604168B24A114041600168A8
:1004C000B14A11400160016821F480210160416856
:1004D00021F4FE0141604FF41F0181607047A8497B
:1004E0000A6822F480320A600A6822F480220A60D4
:1004F000B0F5803F07D0B0F5802F03D1086840F4F5
:10050000A02008607047086840F480300860704799
:100510000346002059099A4A01290AD002290AD023
:10052000516A03F01F02012393400B4200D00120C7
:1005300070471168F5E7116AF3E718B500200090DD
:100540004FF4A0643120FFF7E3FF0099491C0091AC
:100550000099A14201D00028F4D03120FFF7D8FF44
:1005600008B1012018BD002018BD854A116821F08E
:10057000F80141EAC0001060704784490860704784
:100580007F4B5A6822F47C1208431043586070472E
:100590007E49086670477A4A516821F00301014399
:1005A000516070477648406800F00C007047744A0C
:1005B000516821F0F001014351607047704A516861
:1005C00021F4E0610143516070476D4A516821F4A4
:1005D000605141EAC00050607047694A002903D069
:1005E000517A014351727047517A81435172704779
:1005F0006649D83108607047614A516821F440412A
:100600000143516070475E49002220310A7001F8B1
:100610002029012805D0042802D1052081F82000D6
:100620007047012081F820007047594908607047E1
:1006300053490A6A02430A627047554944390860BF
:10064000704710B54E4A516801F00C01514B00291A
:1006500027D0042927D0082927D00360516801F04A
:10066000F00109094C4B5C5C0168E1404160546851
:1006700004F4E064240A1C5D21FA04F484605468E4
:1006800004F46054E40A1B5DD940C160526802F46E
:100690004042920B404B1B1F9A5CB1FBF2F101618F
:1006A00010BD0360DAE70360D8E7516801F4701108
:1006B000536803F48033022404EB914133B153684F
:1006C0009B0307D5354B59430160C7E7334B59436B
:1006D0000160C3E72F4B59430160BFE7284A002957
:1006E00003D05169014351617047516981435161A0
:1006F0007047234A002903D09169014391617047F3
:1007000091698143916170471D4A002903D0D169E5
:100710000143D1617047D1698143D1617047184A63
:10072000002903D0D1680143D1607047D16881436B
:10073000D1607047124A002903D011690143116149
:100740007047116981431161704711494039086050
:1007500070470E49C86470470949C8717047084816
:10076000416A41F080714162704701460020044AAD
:1007700092680A4200D00120704701498872704790
:10078000001002400000FFF8FFFFF6FE00004242AA
:100790008004424200127A000400002000093D005B
:1007A0000948804709480047FEE7FEE7FEE7FEE705
:1007B000FEE7FEE7FEE7FEE7FEE7FEE70448054941
:1007C000054A064B7047000089080008ED00000844
:1007D000880000208806002088020020880200206F
:1007E0000CB50022019200925248016841F4803118
:1007F00001604FF4A063016801F400310091019998
:10080000491C0191009911B901999942F3D10168EC
:10081000890302D50121009100E00092009901298D
:1008200030D145490A6842F010020A600A6822F095
:1008300003020A600A6842F002020A6041684160ED
:1008400041684160416841F480614160416821F440
:100850007C114160416841F4E8114160016841F058
:100860008071016001688901FCD5416821F00301B4
:100870004160416841F0020141604168C1F381017A
:100880000229FAD10CBDABE710B52A48016841F046
:10089000010101604168294A114041600168284A0C
:1008A00011400160016821F480210160416821F458
:1008B000FE0141604FF41F018160FFF7E4FF214911
:1008C0004FF00060086010BD10B51A4A506800F083
:1008D0000C011D4B1D4800290ED004290ED00829FB
:1008E0000ED003605168194AC1F30311121D515C07
:1008F0000268CA40026010BD0360F3E70360F1E7DD
:10090000516801F47011536803F48033022404EB3E
:10091000914133B153689B0307D50D4B5943016097
:10092000E0E70B4B59430160DCE7074B594301609B
:10093000D8E7000000100240002002400000FFF84D
:10094000FFFFF6FE08ED00E000127A001400002020
:1009500000093D00704770477047754600F028F861
:10096000AE4605006946534620F00700854618B09C
:1009700020B5FFF723FFBDE820404FF000064FF001
:1009800000074FF000084FF0000B21F00701AC46C4
:10099000ACE8C009ACE8C009ACE8C009ACE8C009E3
:1009A0008D4670470446AFF300802046FFF7E5FB15
:1009B000004870472800002001491820ABBEFEE720
:1009C0002600020070470000E8090008000000202F
:1009D0002800000028010008100A00082800002054
:1009E0006006000044010008020406080000000040
:1009F00001020304010203040607080900A24A04D5
:100A000000000000000000000102030406070809BE
:04000005080000ED02
:00000001FF
